{
  "_format": "hh-sol-artifact-1",
  "contractName": "ConsumerDataFeedPrices",
  "sourceName": "contracts/ConsumerDataFeedPrices.sol",
  "abi": [
    {
      "inputs": [],
      "stateMutability": "nonpayable",
      "type": "constructor"
    },
    {
      "inputs": [],
      "name": "getBTCLatestPrice",
      "outputs": [
        {
          "internalType": "int256",
          "name": "",
          "type": "int256"
        }
      ],
      "stateMutability": "view",
      "type": "function"
    },
    {
      "inputs": [],
      "name": "getETHLatestPrice",
      "outputs": [
        {
          "internalType": "int256",
          "name": "",
          "type": "int256"
        }
      ],
      "stateMutability": "view",
      "type": "function"
    }
  ],
  "bytecode": "0x608060405234801561001057600080fd5b5073d4a33860578de61dbabdc8bfdb98fd742fa7028e6000806101000a81548173ffffffffffffffffffffffffffffffffffffffff021916908373ffffffffffffffffffffffffffffffffffffffff16021790555073a39434a63a52e749f02807ae27335515ba4b07f7600160006101000a81548173ffffffffffffffffffffffffffffffffffffffff021916908373ffffffffffffffffffffffffffffffffffffffff160217905550610363806100c96000396000f3fe608060405234801561001057600080fd5b50600436106100365760003560e01c80630f00fa111461003b57806394e9925614610059575b600080fd5b610043610077565b60405161005091906101ee565b60405180910390f35b610061610127565b60405161006e91906101ee565b60405180910390f35b600080600160009054906101000a900473ffffffffffffffffffffffffffffffffffffffff1673ffffffffffffffffffffffffffffffffffffffff1663feaf968c6040518163ffffffff1660e01b815260040160a06040518083038186803b1580156100e257600080fd5b505afa1580156100f6573d6000803e3d6000fd5b505050506040513d601f19601f8201168201806040525081019061011a91906102b2565b5050509150508091505090565b60008060008054906101000a900473ffffffffffffffffffffffffffffffffffffffff1673ffffffffffffffffffffffffffffffffffffffff1663feaf968c6040518163ffffffff1660e01b815260040160a06040518083038186803b15801561019057600080fd5b505afa1580156101a4573d6000803e3d6000fd5b505050506040513d601f19601f820116820180604052508101906101c891906102b2565b5050509150508091505090565b6000819050919050565b6101e8816101d5565b82525050565b600060208201905061020360008301846101df565b92915050565b600080fd5b600069ffffffffffffffffffff82169050919050565b61022d8161020e565b811461023857600080fd5b50565b60008151905061024a81610224565b92915050565b610259816101d5565b811461026457600080fd5b50565b60008151905061027681610250565b92915050565b6000819050919050565b61028f8161027c565b811461029a57600080fd5b50565b6000815190506102ac81610286565b92915050565b600080600080600060a086880312156102ce576102cd610209565b5b60006102dc8882890161023b565b95505060206102ed88828901610267565b94505060406102fe8882890161029d565b935050606061030f8882890161029d565b92505060806103208882890161023b565b915050929550929590935056fea2646970667358221220a92a172bd3d0485e6c55fb94f52f25e5cf9c382fbf2a04d6047b363cc284246064736f6c63430008090033",
  "linkReferences": {},
  "deployedLinkReferences": {}
}